{
  "_format": "hh-sol-artifact-1",
  "contractName": "EdgeXGame",
  "sourceName": "contracts/EdgeXGame.sol",
  "abi": [
    {
      "inputs": [],
      "stateMutability": "nonpayable",
      "type": "constructor"
    },
    {
      "anonymous": false,
      "inputs": [
        {
          "indexed": true,
          "internalType": "address",
          "name": "owner",
          "type": "address"
        },
        {
          "indexed": true,
          "internalType": "address",
          "name": "approved",
          "type": "address"
        },
        {
          "indexed": true,
          "internalType": "uint256",
          "name": "tokenId",
          "type": "uint256"
        }
      ],
      "name": "Approval",
      "type": "event"
    },
    {
      "anonymous": false,
      "inputs": [
        {
          "indexed": true,
          "internalType": "address",
          "name": "owner",
          "type": "address"
        },
        {
          "indexed": true,
          "internalType": "address",
          "name": "operator",
          "type": "address"
        },
        {
          "indexed": false,
          "internalType": "bool",
          "name": "approved",
          "type": "bool"
        }
      ],
      "name": "ApprovalForAll",
      "type": "event"
    },
    {
      "anonymous": false,
      "inputs": [
        {
          "indexed": true,
          "internalType": "uint256",
          "name": "tokenId",
          "type": "uint256"
        },
        {
          "indexed": false,
          "internalType": "address",
          "name": "owner",
          "type": "address"
        },
        {
          "indexed": false,
          "internalType": "address",
          "name": "seller",
          "type": "address"
        },
        {
          "indexed": false,
          "internalType": "uint256",
          "name": "price",
          "type": "uint256"
        },
        {
          "indexed": false,
          "internalType": "bool",
          "name": "currentlyListed",
          "type": "bool"
        }
      ],
      "name": "TokenListedSuccess",
      "type": "event"
    },
    {
      "anonymous": false,
      "inputs": [
        {
          "indexed": true,
          "internalType": "address",
          "name": "from",
          "type": "address"
        },
        {
          "indexed": true,
          "internalType": "address",
          "name": "to",
          "type": "address"
        },
        {
          "indexed": true,
          "internalType": "uint256",
          "name": "tokenId",
          "type": "uint256"
        }
      ],
      "name": "Transfer",
      "type": "event"
    },
    {
      "inputs": [
        {
          "internalType": "address",
          "name": "to",
          "type": "address"
        },
        {
          "internalType": "uint256",
          "name": "tokenId",
          "type": "uint256"
        }
      ],
      "name": "approve",
      "outputs": [],
      "stateMutability": "nonpayable",
      "type": "function"
    },
    {
      "inputs": [
        {
          "internalType": "address",
          "name": "owner",
          "type": "address"
        }
      ],
      "name": "balanceOf",
      "outputs": [
        {
          "internalType": "uint256",
          "name": "",
          "type": "uint256"
        }
      ],
      "stateMutability": "view",
      "type": "function"
    },
    {
      "inputs": [
        {
          "internalType": "string",
          "name": "tokenURI",
          "type": "string"
        },
        {
          "internalType": "uint256",
          "name": "price",
          "type": "uint256"
        }
      ],
      "name": "createToken",
      "outputs": [
        {
          "internalType": "uint256",
          "name": "",
          "type": "uint256"
        }
      ],
      "stateMutability": "payable",
      "type": "function"
    },
    {
      "inputs": [
        {
          "internalType": "uint256",
          "name": "tokenId",
          "type": "uint256"
        }
      ],
      "name": "executeSale",
      "outputs": [],
      "stateMutability": "payable",
      "type": "function"
    },
    {
      "inputs": [],
      "name": "getAllNFTs",
      "outputs": [
        {
          "components": [
            {
              "internalType": "uint256",
              "name": "tokenId",
              "type": "uint256"
            },
            {
              "internalType": "address payable",
              "name": "owner",
              "type": "address"
            },
            {
              "internalType": "address payable",
              "name": "seller",
              "type": "address"
            },
            {
              "internalType": "uint256",
              "name": "price",
              "type": "uint256"
            },
            {
              "internalType": "bool",
              "name": "currentlyListed",
              "type": "bool"
            }
          ],
          "internalType": "struct EdgeXGame.ListedGame[]",
          "name": "",
          "type": "tuple[]"
        }
      ],
      "stateMutability": "view",
      "type": "function"
    },
    {
      "inputs": [
        {
          "internalType": "uint256",
          "name": "tokenId",
          "type": "uint256"
        }
      ],
      "name": "getApproved",
      "outputs": [
        {
          "internalType": "address",
          "name": "",
          "type": "address"
        }
      ],
      "stateMutability": "view",
      "type": "function"
    },
    {
      "inputs": [],
      "name": "getCurrentToken",
      "outputs": [
        {
          "internalType": "uint256",
          "name": "",
          "type": "uint256"
        }
      ],
      "stateMutability": "view",
      "type": "function"
    },
    {
      "inputs": [],
      "name": "getLatestIdToListedGame",
      "outputs": [
        {
          "components": [
            {
              "internalType": "uint256",
              "name": "tokenId",
              "type": "uint256"
            },
            {
              "internalType": "address payable",
              "name": "owner",
              "type": "address"
            },
            {
              "internalType": "address payable",
              "name": "seller",
              "type": "address"
            },
            {
              "internalType": "uint256",
              "name": "price",
              "type": "uint256"
            },
            {
              "internalType": "bool",
              "name": "currentlyListed",
              "type": "bool"
            }
          ],
          "internalType": "struct EdgeXGame.ListedGame",
          "name": "",
          "type": "tuple"
        }
      ],
      "stateMutability": "view",
      "type": "function"
    },
    {
      "inputs": [],
      "name": "getListPrice",
      "outputs": [
        {
          "internalType": "uint256",
          "name": "",
          "type": "uint256"
        }
      ],
      "stateMutability": "view",
      "type": "function"
    },
    {
      "inputs": [
        {
          "internalType": "uint256",
          "name": "tokenId",
          "type": "uint256"
        }
      ],
      "name": "getListedGameForId",
      "outputs": [
        {
          "components": [
            {
              "internalType": "uint256",
              "name": "tokenId",
              "type": "uint256"
            },
            {
              "internalType": "address payable",
              "name": "owner",
              "type": "address"
            },
            {
              "internalType": "address payable",
              "name": "seller",
              "type": "address"
            },
            {
              "internalType": "uint256",
              "name": "price",
              "type": "uint256"
            },
            {
              "internalType": "bool",
              "name": "currentlyListed",
              "type": "bool"
            }
          ],
          "internalType": "struct EdgeXGame.ListedGame",
          "name": "",
          "type": "tuple"
        }
      ],
      "stateMutability": "view",
      "type": "function"
    },
    {
      "inputs": [],
      "name": "getMyNFTs",
      "outputs": [
        {
          "components": [
            {
              "internalType": "uint256",
              "name": "tokenId",
              "type": "uint256"
            },
            {
              "internalType": "address payable",
              "name": "owner",
              "type": "address"
            },
            {
              "internalType": "address payable",
              "name": "seller",
              "type": "address"
            },
            {
              "internalType": "uint256",
              "name": "price",
              "type": "uint256"
            },
            {
              "internalType": "bool",
              "name": "currentlyListed",
              "type": "bool"
            }
          ],
          "internalType": "struct EdgeXGame.ListedGame[]",
          "name": "",
          "type": "tuple[]"
        }
      ],
      "stateMutability": "view",
      "type": "function"
    },
    {
      "inputs": [
        {
          "internalType": "address",
          "name": "owner",
          "type": "address"
        },
        {
          "internalType": "address",
          "name": "operator",
          "type": "address"
        }
      ],
      "name": "isApprovedForAll",
      "outputs": [
        {
          "internalType": "bool",
          "name": "",
          "type": "bool"
        }
      ],
      "stateMutability": "view",
      "type": "function"
    },
    {
      "inputs": [],
      "name": "name",
      "outputs": [
        {
          "internalType": "string",
          "name": "",
          "type": "string"
        }
      ],
      "stateMutability": "view",
      "type": "function"
    },
    {
      "inputs": [
        {
          "internalType": "uint256",
          "name": "tokenId",
          "type": "uint256"
        }
      ],
      "name": "ownerOf",
      "outputs": [
        {
          "internalType": "address",
          "name": "",
          "type": "address"
        }
      ],
      "stateMutability": "view",
      "type": "function"
    },
    {
      "inputs": [
        {
          "internalType": "address",
          "name": "from",
          "type": "address"
        },
        {
          "internalType": "address",
          "name": "to",
          "type": "address"
        },
        {
          "internalType": "uint256",
          "name": "tokenId",
          "type": "uint256"
        }
      ],
      "name": "safeTransferFrom",
      "outputs": [],
      "stateMutability": "nonpayable",
      "type": "function"
    },
    {
      "inputs": [
        {
          "internalType": "address",
          "name": "from",
          "type": "address"
        },
        {
          "internalType": "address",
          "name": "to",
          "type": "address"
        },
        {
          "internalType": "uint256",
          "name": "tokenId",
          "type": "uint256"
        },
        {
          "internalType": "bytes",
          "name": "data",
          "type": "bytes"
        }
      ],
      "name": "safeTransferFrom",
      "outputs": [],
      "stateMutability": "nonpayable",
      "type": "function"
    },
    {
      "inputs": [
        {
          "internalType": "address",
          "name": "operator",
          "type": "address"
        },
        {
          "internalType": "bool",
          "name": "approved",
          "type": "bool"
        }
      ],
      "name": "setApprovalForAll",
      "outputs": [],
      "stateMutability": "nonpayable",
      "type": "function"
    },
    {
      "inputs": [
        {
          "internalType": "bytes4",
          "name": "interfaceId",
          "type": "bytes4"
        }
      ],
      "name": "supportsInterface",
      "outputs": [
        {
          "internalType": "bool",
          "name": "",
          "type": "bool"
        }
      ],
      "stateMutability": "view",
      "type": "function"
    },
    {
      "inputs": [],
      "name": "symbol",
      "outputs": [
        {
          "internalType": "string",
          "name": "",
          "type": "string"
        }
      ],
      "stateMutability": "view",
      "type": "function"
    },
    {
      "inputs": [
        {
          "internalType": "uint256",
          "name": "tokenId",
          "type": "uint256"
        }
      ],
      "name": "tokenURI",
      "outputs": [
        {
          "internalType": "string",
          "name": "",
          "type": "string"
        }
      ],
      "stateMutability": "view",
      "type": "function"
    },
    {
      "inputs": [
        {
          "internalType": "address",
          "name": "from",
          "type": "address"
        },
        {
          "internalType": "address",
          "name": "to",
          "type": "address"
        },
        {
          "internalType": "uint256",
          "name": "tokenId",
          "type": "uint256"
        }
      ],
      "name": "transferFrom",
      "outputs": [],
      "stateMutability": "nonpayable",
      "type": "function"
    },
    {
      "inputs": [
        {
          "internalType": "uint256",
          "name": "_listPrice",
          "type": "uint256"
        }
      ],
      "name": "updateListPrice",
      "outputs": [],
      "stateMutability": "payable",
      "type": "function"
    }
  ],
  "bytecode": "0x6080604052662386f26fc10000600a553480156200001c57600080fd5b50604080518082018252600e81526d4e46544d61726b6574706c61636560901b6020808301918252835180850190945260048452634e46544d60e01b9084015281519192916200006f91600091620000a0565b50805162000085906001906020840190620000a0565b5050600980546001600160a01b031916331790555062000183565b828054620000ae9062000146565b90600052602060002090601f016020900481019282620000d257600085556200011d565b82601f10620000ed57805160ff19168380011785556200011d565b828001600101855582156200011d579182015b828111156200011d57825182559160200191906001019062000100565b506200012b9291506200012f565b5090565b5b808211156200012b576000815560010162000130565b600181811c908216806200015b57607f821691505b602082108114156200017d57634e487b7160e01b600052602260045260246000fd5b50919050565b61217e80620001936000396000f3fe6080604052600436106101355760003560e01c806370a08231116100ab578063b88d4fde1161006f578063b88d4fde1461034d578063c322579c1461036d578063c87b56dd14610380578063e0391b09146103a0578063e985e9c5146103b5578063ef2d1746146103fe57600080fd5b806370a08231146102d257806372b3b620146102f257806395d89b41146103055780639b1225c41461031a578063a22cb4651461032d57600080fd5b8063150af154116100fd578063150af1541461021157806323b872dd1461023157806342842e0e14610251578063629cb2e4146102715780636352211e1461029357806368f1945f146102b357600080fd5b8063013432e81461013a57806301ffc9a71461016557806306fdde0314610195578063081812fc146101b7578063095ea7b3146101ef575b600080fd5b34801561014657600080fd5b5061014f610413565b60405161015c9190612047565b60405180910390f35b34801561017157600080fd5b50610185610180366004611d84565b61048a565b604051901515815260200161015c565b3480156101a157600080fd5b506101aa6104dc565b60405161015c9190611f50565b3480156101c357600080fd5b506101d76101d2366004611e12565b61056e565b6040516001600160a01b03909116815260200161015c565b3480156101fb57600080fd5b5061020f61020a366004611d5b565b610595565b005b34801561021d57600080fd5b5061014f61022c366004611e12565b6106b0565b34801561023d57600080fd5b5061020f61024c366004611c6d565b61071a565b34801561025d57600080fd5b5061020f61026c366004611c6d565b61074b565b34801561027d57600080fd5b50610286610766565b60405161015c9190611f02565b34801561029f57600080fd5b506101d76102ae366004611e12565b6109ab565b3480156102bf57600080fd5b50600a545b60405190815260200161015c565b3480156102de57600080fd5b506102c46102ed366004611c21565b610a0b565b6102c4610300366004611dbc565b610a91565b34801561031157600080fd5b506101aa610ad3565b61020f610328366004611e12565b610ae2565b34801561033957600080fd5b5061020f610348366004611d21565b610c46565b34801561035957600080fd5b5061020f610368366004611ca8565b610c55565b61020f61037b366004611e12565b610c87565b34801561038c57600080fd5b506101aa61039b366004611e12565b610cf2565b3480156103ac57600080fd5b50610286610e03565b3480156103c157600080fd5b506101856103d0366004611c3b565b6001600160a01b03918216600090815260056020908152604080832093909416825291909152205460ff1690565b34801561040a57600080fd5b506102c4610f4a565b61041b611ac8565b600061042660075490565b6000908152600b6020908152604091829020825160a0810184528154815260018201546001600160a01b03908116938201939093526002820154909216928201929092526003820154606082015260049091015460ff161515608082015292915050565b60006001600160e01b031982166380ac58cd60e01b14806104bb57506001600160e01b03198216635b5e139f60e01b145b806104d657506301ffc9a760e01b6001600160e01b03198316145b92915050565b6060600080546104eb906120b0565b80601f0160208091040260200160405190810160405280929190818152602001828054610517906120b0565b80156105645780601f1061053957610100808354040283529160200191610564565b820191906000526020600020905b81548152906001019060200180831161054757829003601f168201915b5050505050905090565b600061057982610f5a565b506000908152600460205260409020546001600160a01b031690565b60006105a0826109ab565b9050806001600160a01b0316836001600160a01b031614156106135760405162461bcd60e51b815260206004820152602160248201527f4552433732313a20617070726f76616c20746f2063757272656e74206f776e656044820152603960f91b60648201526084015b60405180910390fd5b336001600160a01b038216148061062f575061062f81336103d0565b6106a15760405162461bcd60e51b815260206004820152603d60248201527f4552433732313a20617070726f76652063616c6c6572206973206e6f7420746f60448201527f6b656e206f776e6572206f7220617070726f76656420666f7220616c6c000000606482015260840161060a565b6106ab8383610fbc565b505050565b6106b8611ac8565b506000908152600b6020908152604091829020825160a0810184528154815260018201546001600160a01b03908116938201939093526002820154909216928201929092526003820154606082015260049091015460ff161515608082015290565b610724338261102a565b6107405760405162461bcd60e51b815260040161060a90611f63565b6106ab8383836110a8565b6106ab83838360405180602001604052806000815250610c55565b6060600061077360075490565b905060008060005b8381101561080b5733600b6000610793846001612055565b81526020810191909152604001600020600101546001600160a01b031614806107e6575033600b60006107c7846001612055565b81526020810191909152604001600020600201546001600160a01b0316145b156107f9576107f6600184612055565b92505b80610803816120eb565b91505061077b565b5060008267ffffffffffffffff81111561083557634e487b7160e01b600052604160045260246000fd5b60405190808252806020026020018201604052801561086e57816020015b61085b611ac8565b8152602001906001900390816108535790505b50905060005b848110156109a25733600b600061088c846001612055565b81526020810191909152604001600020600101546001600160a01b031614806108df575033600b60006108c0846001612055565b81526020810191909152604001600020600201546001600160a01b0316145b156109905760006108f1826001612055565b6000818152600b6020908152604091829020825160a0810184528154815260018201546001600160a01b039081169382019390935260028201549092169282019290925260038201546060820152600482015460ff16151560808201528551929350909185908790811061097557634e487b7160e01b600052603260045260246000fd5b602090810291909101015261098b600186612055565b945050505b8061099a816120eb565b915050610874565b50949350505050565b6000818152600260205260408120546001600160a01b0316806104d65760405162461bcd60e51b8152602060048201526018602482015277115490cdcc8c4e881a5b9d985b1a59081d1bdad95b88125160421b604482015260640161060a565b60006001600160a01b038216610a755760405162461bcd60e51b815260206004820152602960248201527f4552433732313a2061646472657373207a65726f206973206e6f7420612076616044820152683634b21037bbb732b960b91b606482015260840161060a565b506001600160a01b031660009081526003602052604090205490565b6000610aa1600780546001019055565b6000610aac60075490565b9050610ab83382611219565b610ac28185611233565b610acc81846112cd565b9392505050565b6060600180546104eb906120b0565b6000818152600b6020526040902060038101546002909101546001600160a01b0316348214610b7b576040805162461bcd60e51b81526020600482015260248101919091527f506c65617365207375626d6974207468652061736b696e67207072696365206960448201527f6e206f7264657220746f20636f6d706c65746520746865207075726368617365606482015260840161060a565b6000838152600b6020526040902060048101805460ff1916600117905560020180546001600160a01b03191633179055610bb9600880546001019055565b610bc43033856110a8565b610bce3084610595565b600954600a546040516001600160a01b039092169181156108fc0291906000818181858888f19350505050158015610c0a573d6000803e3d6000fd5b506040516001600160a01b038216903480156108fc02916000818181858888f19350505050158015610c40573d6000803e3d6000fd5b50505050565b610c5133838361146f565b5050565b610c5f338361102a565b610c7b5760405162461bcd60e51b815260040161060a90611f63565b610c408484848461153e565b6009546001600160a01b03163314610ced5760405162461bcd60e51b815260206004820152602360248201527f4f6e6c79206f776e65722063616e20757064617465206c697374696e6720707260448201526269636560e81b606482015260840161060a565b600a55565b6060610cfd82610f5a565b60008281526006602052604081208054610d16906120b0565b80601f0160208091040260200160405190810160405280929190818152602001828054610d42906120b0565b8015610d8f5780601f10610d6457610100808354040283529160200191610d8f565b820191906000526020600020905b815481529060010190602001808311610d7257829003601f168201915b505050505090506000610dad60408051602081019091526000815290565b9050805160001415610dc0575092915050565b815115610df2578082604051602001610dda929190611e96565b60405160208183030381529060405292505050919050565b610dfb84611571565b949350505050565b60606000610e1060075490565b905060008167ffffffffffffffff811115610e3b57634e487b7160e01b600052604160045260246000fd5b604051908082528060200260200182016040528015610e7457816020015b610e61611ac8565b815260200190600190039081610e595790505b5090506000805b83811015610f41576000610e90826001612055565b6000818152600b6020908152604091829020825160a0810184528154815260018201546001600160a01b039081169382019390935260028201549092169282019290925260038201546060820152600482015460ff161515608082015286519293509091869086908110610f1457634e487b7160e01b600052603260045260246000fd5b6020908102919091010152610f2a600185612055565b935050508080610f39906120eb565b915050610e7b565b50909392505050565b6000610f5560075490565b905090565b6000818152600260205260409020546001600160a01b0316610fb95760405162461bcd60e51b8152602060048201526018602482015277115490cdcc8c4e881a5b9d985b1a59081d1bdad95b88125160421b604482015260640161060a565b50565b600081815260046020526040902080546001600160a01b0319166001600160a01b0384169081179091558190610ff1826109ab565b6001600160a01b03167f8c5be1e5ebec7d5bd14f71427d1e84f3dd0314c0f7b2291e5b200ac8c7c3b92560405160405180910390a45050565b600080611036836109ab565b9050806001600160a01b0316846001600160a01b0316148061107d57506001600160a01b0380821660009081526005602090815260408083209388168352929052205460ff165b80610dfb5750836001600160a01b03166110968461056e565b6001600160a01b031614949350505050565b826001600160a01b03166110bb826109ab565b6001600160a01b0316146110e15760405162461bcd60e51b815260040161060a90612002565b6001600160a01b0382166111435760405162461bcd60e51b8152602060048201526024808201527f4552433732313a207472616e7366657220746f20746865207a65726f206164646044820152637265737360e01b606482015260840161060a565b61115083838360016115e4565b826001600160a01b0316611163826109ab565b6001600160a01b0316146111895760405162461bcd60e51b815260040161060a90612002565b600081815260046020908152604080832080546001600160a01b03199081169091556001600160a01b0387811680865260038552838620805460001901905590871680865283862080546001019055868652600290945282852080549092168417909155905184937fddf252ad1be2c89b69c2b068fc378daa952ba7f163c4a11628f55a4df523b3ef91a4505050565b610c5182826040518060200160405280600081525061166c565b6000828152600260205260409020546001600160a01b03166112ae5760405162461bcd60e51b815260206004820152602e60248201527f45524337323155524953746f726167653a2055524920736574206f66206e6f6e60448201526d32bc34b9ba32b73a103a37b5b2b760911b606482015260840161060a565b600082815260066020908152604090912082516106ab92840190611af6565b600a54341461132a5760405162461bcd60e51b815260206004820152602360248201527f486f706566756c6c792073656e64696e672074686520636f727265637420707260448201526269636560e81b606482015260840161060a565b600081116113855760405162461bcd60e51b815260206004820152602260248201527f4d616b652073757265207468652070726963652069736e2774206e6567617469604482015261766560f01b606482015260840161060a565b6040805160a081018252838152306020808301828152338486018181526060860188815260016080880181815260008c8152600b9097529890952096518755925193860180546001600160a01b039586166001600160a01b03199182161790915590516002870180549190951691161790925551600384015592516004909201805492151560ff19909316929092179091556114229190846110a8565b604080513081523360208201529081018290526001606082015282907f9339409317fd01fabff48b703019016f49159bacc801ae872d2ca637d226e4c09060800160405180910390a25050565b816001600160a01b0316836001600160a01b031614156114d15760405162461bcd60e51b815260206004820152601960248201527f4552433732313a20617070726f766520746f2063616c6c657200000000000000604482015260640161060a565b6001600160a01b03838116600081815260056020908152604080832094871680845294825291829020805460ff191686151590811790915591519182527f17307eab39ab6107e8899845ad3d59bd9653f200f220920489ca2b5937696c31910160405180910390a3505050565b6115498484846110a8565b6115558484848461169f565b610c405760405162461bcd60e51b815260040161060a90611fb0565b606061157c82610f5a565b600061159360408051602081019091526000815290565b905060008151116115b35760405180602001604052806000815250610acc565b806115bd846117ac565b6040516020016115ce929190611e96565b6040516020818303038152906040529392505050565b6001811115610c40576001600160a01b0384161561162a576001600160a01b0384166000908152600360205260408120805483929061162490849061206d565b90915550505b6001600160a01b03831615610c40576001600160a01b03831660009081526003602052604081208054839290611661908490612055565b909155505050505050565b6116768383611857565b611683600084848461169f565b6106ab5760405162461bcd60e51b815260040161060a90611fb0565b60006001600160a01b0384163b156117a157604051630a85bd0160e11b81526001600160a01b0385169063150b7a02906116e3903390899088908890600401611ec5565b602060405180830381600087803b1580156116fd57600080fd5b505af192505050801561172d575060408051601f3d908101601f1916820190925261172a91810190611da0565b60015b611787573d80801561175b576040519150601f19603f3d011682016040523d82523d6000602084013e611760565b606091505b50805161177f5760405162461bcd60e51b815260040161060a90611fb0565b805181602001fd5b6001600160e01b031916630a85bd0160e11b149050610dfb565b506001949350505050565b606060006117b9836119f0565b600101905060008167ffffffffffffffff8111156117e757634e487b7160e01b600052604160045260246000fd5b6040519080825280601f01601f191660200182016040528015611811576020820181803683370190505b5090508181016020015b600019016f181899199a1a9b1b9c1cb0b131b232b360811b600a86061a8153600a850494508461184a5761184f565b61181b565b509392505050565b6001600160a01b0382166118ad5760405162461bcd60e51b815260206004820181905260248201527f4552433732313a206d696e7420746f20746865207a65726f2061646472657373604482015260640161060a565b6000818152600260205260409020546001600160a01b0316156119125760405162461bcd60e51b815260206004820152601c60248201527f4552433732313a20746f6b656e20616c7265616479206d696e74656400000000604482015260640161060a565b6119206000838360016115e4565b6000818152600260205260409020546001600160a01b0316156119855760405162461bcd60e51b815260206004820152601c60248201527f4552433732313a20746f6b656e20616c7265616479206d696e74656400000000604482015260640161060a565b6001600160a01b038216600081815260036020908152604080832080546001019055848352600290915280822080546001600160a01b0319168417905551839291907fddf252ad1be2c89b69c2b068fc378daa952ba7f163c4a11628f55a4df523b3ef908290a45050565b60008072184f03e93ff9f4daa797ed6e38ed64bf6a1f0160401b8310611a2f5772184f03e93ff9f4daa797ed6e38ed64bf6a1f0160401b830492506040015b6d04ee2d6d415b85acef81000000008310611a5b576d04ee2d6d415b85acef8100000000830492506020015b662386f26fc100008310611a7957662386f26fc10000830492506010015b6305f5e1008310611a91576305f5e100830492506008015b6127108310611aa557612710830492506004015b60648310611ab7576064830492506002015b600a83106104d65760010192915050565b6040805160a08101825260008082526020820181905291810182905260608101829052608081019190915290565b828054611b02906120b0565b90600052602060002090601f016020900481019282611b245760008555611b6a565b82601f10611b3d57805160ff1916838001178555611b6a565b82800160010185558215611b6a579182015b82811115611b6a578251825591602001919060010190611b4f565b50611b76929150611b7a565b5090565b5b80821115611b765760008155600101611b7b565b600067ffffffffffffffff80841115611baa57611baa61211c565b604051601f8501601f19908116603f01168101908282118183101715611bd257611bd261211c565b81604052809350858152868686011115611beb57600080fd5b858560208301376000602087830101525050509392505050565b80356001600160a01b0381168114611c1c57600080fd5b919050565b600060208284031215611c32578081fd5b610acc82611c05565b60008060408385031215611c4d578081fd5b611c5683611c05565b9150611c6460208401611c05565b90509250929050565b600080600060608486031215611c81578081fd5b611c8a84611c05565b9250611c9860208501611c05565b9150604084013590509250925092565b60008060008060808587031215611cbd578081fd5b611cc685611c05565b9350611cd460208601611c05565b925060408501359150606085013567ffffffffffffffff811115611cf6578182fd5b8501601f81018713611d06578182fd5b611d1587823560208401611b8f565b91505092959194509250565b60008060408385031215611d33578182fd5b611d3c83611c05565b915060208301358015158114611d50578182fd5b809150509250929050565b60008060408385031215611d6d578182fd5b611d7683611c05565b946020939093013593505050565b600060208284031215611d95578081fd5b8135610acc81612132565b600060208284031215611db1578081fd5b8151610acc81612132565b60008060408385031215611dce578182fd5b823567ffffffffffffffff811115611de4578283fd5b8301601f81018513611df4578283fd5b611e0385823560208401611b8f565b95602094909401359450505050565b600060208284031215611e23578081fd5b5035919050565b60008151808452611e42816020860160208601612084565b601f01601f19169290920160200192915050565b805182526020808201516001600160a01b039081169184019190915260408083015190911690830152606080820151908301526080908101511515910152565b60008351611ea8818460208801612084565b835190830190611ebc818360208801612084565b01949350505050565b6001600160a01b0385811682528416602082015260408101839052608060608201819052600090611ef890830184611e2a565b9695505050505050565b6020808252825182820181905260009190848201906040850190845b81811015611f4457611f31838551611e56565b9284019260a09290920191600101611f1e565b50909695505050505050565b602081526000610acc6020830184611e2a565b6020808252602d908201527f4552433732313a2063616c6c6572206973206e6f7420746f6b656e206f776e6560408201526c1c881bdc88185c1c1c9bdd9959609a1b606082015260800190565b60208082526032908201527f4552433732313a207472616e7366657220746f206e6f6e20455243373231526560408201527131b2b4bb32b91034b6b83632b6b2b73a32b960711b606082015260800190565b60208082526025908201527f4552433732313a207472616e736665722066726f6d20696e636f72726563742060408201526437bbb732b960d91b606082015260800190565b60a081016104d68284611e56565b6000821982111561206857612068612106565b500190565b60008282101561207f5761207f612106565b500390565b60005b8381101561209f578181015183820152602001612087565b83811115610c405750506000910152565b600181811c908216806120c457607f821691505b602082108114156120e557634e487b7160e01b600052602260045260246000fd5b50919050565b60006000198214156120ff576120ff612106565b5060010190565b634e487b7160e01b600052601160045260246000fd5b634e487b7160e01b600052604160045260246000fd5b6001600160e01b031981168114610fb957600080fdfea26469706673582212201855dcfd4f3497b175879cd933ea3f1da477f0ddb32f4af67f2299b6d9d25b4d64736f6c63430008040033",
  "linkReferences": {},
  "deployedLinkReferences": {}
}